:020000040000FA
:060000000A128A11F62F1E
:100C9E00C130831603138F00080007308316031329
:100CAE00850086018701880189018312031385015E
:100CBE00860187018801890183160317890188013E
:100CCE0008000A128A1154260A128A110A128A116F
:100CDE004F260A128A1183120313051C772E782EC3
:100CEE00C62E85014F308800013089000230F80091
:100CFE000430F700BA30F600F60B832EF70B832E76
:100D0E00F80B832E00005B30831203138800023031
:100D1E0089000230F8000430F700BA30F600F60B06
:100D2E00962EF70B962EF80B962E00000630831299
:100D3E0003138800043089000230F8000430F700F5
:100D4E00BA30F600F60BA92EF70BA92EF80BA92E2A
:100D5E0000003F3083120313880089010230F8002F
:100D6E000430F700BA30F600F60BBB2EF70BBB2E95
:100D7E00F80BBB2E00000130F0000030F1008312A2
:100D8E000313851CCB2ECC2E5C2F70037104031D18
:100D9E00D12ED22E5C2F0230F8000430F700BA307C
:100DAE00F600F60BD82EF70BD82EF80BD82E000027
:100DBE000130F4070318F50A0030F50774037504C3
:100DCE00031DEA2EEB2EF32E013083120313860041
:100DDE008511880189015C2F023074067504031D8C
:100DEE00F92EFA2EFF2E02308312031386005C2F8B
:100DFE00033074067504031D052F062F0B2F0430C8
:100E0E008312031386005C2F043074067504031DD1
:100E1E00112F122F172F08308312031386005C2F09
:100E2E00053074067504031D1D2F1E2F232F103041
:100E3E008312031386005C2F063074067504031D9F
:100E4E00292F2A2F2F2F20308312031386005C2F79
:100E5E00073074067504031D352F362F3B2F403097
:100E6E008312031386005C2F083074067504031D6D
:100E7E00412F422F472F80308312031386005C2FA1
:100E8E00093074067504031D4D2F4E2F5C2F8312EF
:100E9E00031386018701F401F501F201F301F0015C
:100EAE00F1010630880085155C2F83120313051D92
:100EBE00612F622F722E70037104031D672F682F2E
:100ECE00722E0230F8000430F700BA30F600F60B3E
:100EDE006E2FF70B6E2FF80B6E2F00000130F207FE
:100EEE000318F30A0030F30772037304031D802FF7
:100EFE00812F892F01308312031387000512880179
:100F0E008901722E023072067304031D8F2F902FEB
:100F1E00952F0230831203138700722E0330720650
:100F2E007304031D9B2F9C2FA12F043083120313D8
:100F3E008700722E043072067304031DA72FA82F8C
:100F4E00AD2F0830831203138700722E0530720600
:100F5E007304031DB32FB42FB92F10308312031354
:100F6E008700722E063072067304031DBF2FC02F2A
:100F7E00C52F2030831203138700722E073072069E
:100F8E007304031DCB2FCC2FD12F403083120313AC
:100F9E008700722E083072067304031DD72FD82FC8
:100FAE00DD2F8030831203138700722E09307206F4
:100FBE007304031DE32FE42FF22F83120313870113
:100FCE008601F201F301F401F501F001F1015B304C
:100FDE0088000516722E722E0A128A110028F00150
:100FEE00F101F201F301F401F50183010A128A11F4
:020FFE00682E5B
:04400E00D4E0FFFFFC
:00000001FF
